:020000041000EA
:10000000002000081B0100100D0000007D01001001
:1000100000000000000000000000000000000000E0
:100020000000000000000000000000007901001046
:1000300000000000000000007901001079010010AC
:100040007901001079010010790100107901001088
:100050007901001079010010790100107901001078
:100060007901001079010010790100107901001068
:100070007901001079010010790100107901001058
:100080000448054B10B5834203D0044B002B00D02D
:10009000984710BD780300087803000800000000AE
:1000A00006480749091A8B10C90FC91810B549101D
:1000B00003D0044B002B00D0984710BD78030008F4
:1000C000780300080000000010B5074C2378002BCF
:1000D00009D1FFF7D5FF054B002B02D0044800E003
:1000E00000BF0123237010BDB00300080000000012
:1000F00094150010054B10B5002B03D0044905489A
:1001000000E000BFFFF7CCFF10BDC04600000000BC
:10011000B4030008941500107047FFF7FDFF72B696
:100120000F4C104DAC4209DA21686268A368043BA9
:1001300002DBC858D050FAE70C34F3E70A490B4AFF
:100140000020521A02DD043A8850FCDC08480949B4
:100150000860BFF34F8F00F06FF800F01DF8FEE766
:10016000A0150010B8150010B0030008C80500085D
:100170000000000808ED00E0FEE7FEE700B50420FF
:100180007146084202D0EFF3098002E0EFF30880E5
:10019000043000F0BBFDFEE710B562B6034800F086
:1001A000C3F8002000F0BAFEFBE7C04600200010B4
:1001B00010B5002000F090FA10BD704770B5002017
:1001C00000F0EEFC041E28D0144B186000F064FB15
:1001D000411C200000F080FF114B0400186000F06B
:1001E0004DFB411C200000F077FF04000D4B013C4B
:1001F00018600D49200000F06FFFFA210B4D01300F
:1002000028708900200000F067FF094D0130286048
:10021000002000F0C5FC074B186070BD8800000886
:100220008C0000088000000840420F009400000885
:10023000900000088400000810B5204800F0ACF8D9
:10024000B022E02130201E4CD200A35889005B0070
:100250005B08A35063588343635080235B04A3501F
:10026000184B194AE250A02204339201E250FF22B7
:10027000164BE25000F014FFC02201215200A35897
:100280008B43A350FFF799FFFFF798FF104B032014
:100290001A681300BA33198807234B43126A802166
:1002A0009B180022DA605A600A4A00F05FFA0A4896
:1002B00000F022F9094800F05BF910BDD4140010D9
:1002C0000000264084050000010002008C050000AB
:1002D0004C05000878030008CC030008A0140010A7
:1002E0009023034A5B01D058032318407047C0464F
:1002F0000000204010B5902400F047F8074B64013F
:100300001959074A1140074A0A431A5110225968DD
:100310001142FCD000F03DF810BDC0460000204066
:10032000FCFF00000100FA05F8B590260E4C76019E
:10033000070000F02AF8A3590500DB439B0701D111
:10034000FFF7D8FF80239B00E750A259074B1A40C4
:10035000074B1343A351102362681A42FCD02800B4
:1003600000F017F8F8BDC04600002040FCFF000078
:100370000300FA05000000000230800803D00130BD
:100380000238FCD1C046C0467047EFF3108072B609
:10039000704780F310887047014B18607047C04663
:1003A0004C050008044B1B681A00BA3212881B6AFD
:1003B0005043C0187047C0464C050008A02300B544
:1003C0001B06984226D015D8802825D00AD8102898
:1003D00024D0402824D000280BD0154809E0A420C0
:1003E000C00306E08022134B520090421CD098427A
:1003F000F3D100BD104B984218D0104BC018042800
:10040000EBD800F05FFEECEA0F0305000C48F0E7C4
:100410000C48EEE70020ECE70B48EAE70B48E8E77A
:100420000B48E6E70B48E4E71800E2E7A020D7E72F
:10043000FF00520006005200090000A0FFFFFF0F5E
:10044000020052000300520005005200010050005B
:10045000020050000100520010B50020FFF7A2FF7B
:100460000A4B1C682300BC331B68C0180368002BB0
:100470000ADB074B1868FFF7A1FF012263689A6047
:100480009A68002AFCD110BD0248FCE74C05000820
:100490005005000802005000064B1B68BC331B6867
:1004A000C3181B68002B03DA89B241600020704733
:1004B0000148FCE74C05000801008A000368002B96
:1004C00004DA89B2C2608160002070470048FCE70E
:1004D00001008A00064B1B68BC331B68C3181B68ED
:1004E000002B03DAC36800200B6070470148FCE76B
:1004F0004C05000801008A00024B1A68002A00D14E
:100500001860704764050008F0B52C24154E44436C
:1005100030681F000019FF241E0A26402740124C95
:100520001B0C256807602C6A46608360BA352D88ED
:100530006F433F190761370080377F01E7190B4D83
:1005400076014761A4191F043B436419236000230B
:100550008361059BC2610162002B01D01B888381EE
:10056000F0BDC046640500084C05000808100000F6
:10057000F0B50400236987B0026841680393A3685B
:1005800004AD1732C0682B806A80039BA26A059174
:100590000095E16A266A676AFFF7B6FF00213B0013
:1005A0000A0030000091FFF7AFFF2800216B00F038
:1005B00077FB0022AB5E002B06DB1F2213401E3AA6
:1005C0009A401300014A136007B0F0BD00E100E05B
:1005D000F0B585B003931B4B16001C682C235843C1
:1005E0004B4320180769E418002F27D0A569002D78
:1005F00026D13B68002B23DA134B1B6834331B785E
:100600000193436801996068029300F0EBFD0122B9
:100610008A40336812049BB2134333600123FE60A7
:10062000A361039B01996362029800F0DBFD012343
:100630008B409BB2BB60280005B0F0BD034DFAE7CC
:10064000034DF8E7640500084C05000804028A0021
:1006500007028A0073B5002642690400D568019636
:100660002B0CB34221D01B0413601368194B006993
:100670001B68BC331B68C3181B68B34215DA01A999
:10068000FFF728FFB0420CD10198E26903681E0C05
:10069000DBB29A4205D9226A9B009B58002B00D0FE
:1006A000984731002069FFF7F7FEADB2002D09D061
:1006B00063691D6000251B68636AAB4205D09847DB
:1006C0006562A56163691B6873BDA36A002BF8D0DE
:1006D0009847F6E74C0500082C2310B54343034A1E
:1006E0001068C018FFF7B6FF10BDC04664050008CB
:1006F0001A4B70B51A680C00130033331B78834211
:100700002AD9002928D00D681F212B000B400D424B
:1007100022D11100BA310988126A48431900104DDC
:100720008018286022685209934210D30021FFF7F5
:10073000B3FE002122002868FFF7C0FE011E04D18D
:100740002868FFF7A9FE002800D0064870BD62683F
:100750009E00B1500133E5E70348F7E74C05000878
:100760006805000801018A0003018A000B0010B52A
:10077000002A0DD1002914D10B4A0C4C11680A0033
:10078000BA321288096A424352182260180010BD1A
:10079000002906D006490B604A60FFF7A9FF030055
:1007A000F4E7044BF2E7C0464C0500086805000872
:1007B0008803000803018A00F7B51B4F04003B685B
:1007C0000E00002B2BD0DB681A68824229D9002545
:1007D0005B680193A94202D1FFF7D7FD0500386895
:1007E0000368002B19DA1F23012223409A40640971
:1007F000019BA4001C1921680A420CD0914321607E
:1008000000240021FFF748FE002E02D12800FFF748
:10081000C0FD2000FEBD054CF3E7054CF4E7034C9A
:10082000F7E7044CF5E7C0466805000802018800B8
:100830000301880004018A000C4B1B68002B11D0B7
:10084000DB681A6882420FD959681F234209184091
:100850001E3B8340920050581840431E9841044B61
:10086000C01870470348FCE70348FAE7680500082A
:10087000000188000201880004018A00054B1B6802
:100880001A0088321B6812689B181868000AC0B2E8
:100890007047C0464C050008044B1B681A0088329C
:1008A0001B6812689B181868000E70474C050008FA
:1008B000034BE0308000C0588006800F7047C04670
:1008C00000002640024B18694007C00F7047C04621
:1008D00000002740A6220549D2008B580220DB43A6
:1008E0009B0702D00123885818407047000026401B
:1008F00010B5FFF7EFFF0023022801D1014B1B6861
:10090000180010BD70050008084A83009B18D0220B
:100910009200985807221040042806D1C022920065
:100920009B581F22FC30134018437047000026409C
:1009300010B5FFF7E9FF88235B0098421CD00BD865
:10094000012813D0022814D0431E9841104B404276
:100950001840104BC01810BD1223FF33984210D01E
:100960001423FF33984210D00020F4E70A4B186894
:10097000F1E7FFF7BDFFEEE7084A094BD058C00F7B
:1009800001E0FFF79FFFC003E5E7044A054BF5E7E9
:1009900000EE85FF00127A006C050008000026407A
:1009A0000C0500003C050000B023154ADB00D358BD
:1009B00010B59903DB01DB0F890BC371114B01608B
:1009C000D3580F24D904DB01DB0D0381B123DB00F5
:1009D000D358C90C81801900214081721909214026
:1009E000C172D9029B009B0F8373074BC90CD3586C
:1009F00081815A05DB01520FDB0D8271038210BD2C
:100A000000002640840500008C0500008030034B68
:100A1000FF308000C058C00F7047C046000026401D
:100A20000F4B421E1B683F331B78934216D9803010
:100A30007F220C4BFF308000C3581F201A400A70E1
:100A40001A0A02404A701A0C02408A701A01C24007
:100A500000209B009B0FCA700B7170470248FCE797
:100A60004C0500080000264001004A00F0B589B09E
:100A700003AD2800FFF798FFB0230026164ADB00DD
:100A8000D358B34224DAAB7B022B21D0AC88B442DA
:100A90001ED03000ED79039FFFF74AFF220033009C
:100AA00031000190681C00F0C3FB0C00050033000E
:100AB0003A003100019800F0BBFBE6076A083243B8
:100AC0006308801859412A00230000F091FB0600BA
:100AD000300009B0F0BDC04600002640F7B5234BFA
:100AE00006001B683F331B78002B08D000283BD042
:100AF000834204D36946FFF793FF041E01D000260A
:100B000032E03000FFF782FF2300002805D06B465B
:100B10001C79023C23005A1E93416A461778547888
:100B20009578002BEBD0002CE9D0002DE7D03000D9
:100B3000FFF7FEFE002306002A002000190000F047
:100B400077FB00230C0005003A003000190000F08C
:100B50006FFBE6076A0832436308801859412A0090
:100B6000230000F045FB06003000FEBD4C050008E8
:100B700010B5041E04D1FFF779FF002806D008E065
:100B8000064B1B683F331B78834203D22000FFF7DC
:100B9000CFFE10BDFFF7A2FFEFE7C0464C050008EF
:100BA00070B50500FFF784FEE035074BAD0004008B
:100BB000E8580F231840FFF7DBFF0123A3405B0831
:100BC0001818E04070BDC0460000264030B5FF2533
:100BD00003242A000440E400A24089012940D243B2
:100BE000A14083B200280ADBC0240B4B80088000A0
:100BF000C018A400035913400B43035130BD0F200C
:100C00000340083B05489B089B001B18D86902401D
:100C10000A43DA61F2E7C04600E100E000ED00E0DF
:100C2000144B30B51B6807241A002C3212781F2A87
:100C300015D882081500A5432C1E0FD1033420407F
:100C4000A04081401B68920020339B180A00FF21BE
:100C500081401C68624011406140196030BD1A68D3
:100C6000802320401B06034380208001091889004F
:100C70008B50F3E74C050008064B10B59A68064CFC
:100C800010308300A24202D19858995010BD034AF7
:100C9000D058FBE700ED00E0000000080000001065
:100CA000F7B504000E00002801D1144C17E0002312
:100CB000C55E134B4188134F0193002D11DB2800B3
:100CC000FFF7AEFF61682800FFF780FFBB68019A5D
:100CD0000024934203D131002800FFF7CDFF20000C
:100CE000FEBD08B26168FFF771FFBB68019A9342CD
:100CF000DBD131002800FFF7BFFFD6E70100560027
:100D00000000000800ED00E0FEE7000002680A4B6A
:100D100010B51A6042685A6082689A60C268DA60E8
:100D200002691A6142695A6182699A61C269DA612B
:100D3000FFF7EAFF10BDC04690030008B0235B0533
:100D40005A782120002A01D05878C0B27047B023C9
:100D50005B059A89002A02D0988980B2704780206A
:100D60004000FBE7254B73B586000D00F4580429BD
:100D700001D0012925D100200EE0A3682B420AD121
:100D8000E36829001A685B6868460193009223684B
:100D900098471B4B1C606469002C0AD0194B984281
:100DA000EBD1012DE9D1164A174B126815489A511B
:100DB00076BD012DFCD1134B9842F4D0124B9C51BF
:100DC000F6E7022914D026006469002CFBD100202C
:100DD000002EEDD0B3682B4208D1F36829001A68C1
:100DE0005B68684601930092336898473669EFE77D
:100DF000034B1B68181EDBD01E69E8E7B40500082A
:100E0000B0050008FF0042009C0500081A4B1B6853
:100E1000190088311A6809685118096801621900B7
:100E20008C3109685218126842621A0046321278F0
:100E3000002A1FD09A68E0321268D2061AD5F22230
:100E4000DB68D2019A580260F022D2019A584260BF
:100E50000A4A9A5882600A4A9A58C260094A9A58BD
:100E60000261094A9A584261084A9A588261084ABE
:100E70009B58C3617047C0464C05000804780000C9
:100E8000087800000C78000010780000147800004A
:100E9000187800001A4B1B681900883109681A6815
:100EA0005218016A116019008C3109681A685218C9
:100EB000416A11601A0046321278002A1ED09A68E0
:100EC000E0321268D20619D5F0224168DB68D201FF
:100ED000995081680B4A9950C1680B4A9950016931
:100EE0000A4A995041690A4A99508169094A9950B8
:100EF000C169094A99500168E83299507047C04663
:100F00004C05000804780000087800000C78000008
:100F1000107800001478000018780000F7B505007C
:100F2000FFF70CFF564F01907B68002B00D06FE05D
:100F3000FFF72BFA7B680090002B00D07CE0514B30
:100F400007271C682300BA331B885F43236AFB18FA
:100F50001A68002AFCDADB68DA001ED51B0F4A4843
:100F60001E07FFF753FF22008832126823684749A3
:100F70009B181A6801980A40212862D1902000012C
:100F800002431A6022008C32126823689B181A6888
:100F90000A40104318603C4B3343802292051343B0
:100FA000226A0024BF18FB607C607B68FFF7CFFEDD
:100FB0008023344F5B00984246D1280000F068FA45
:100FC0003F6807223B00BA331E883B6A5643F3183A
:100FD0001A68002AFCDADD68EB0003D52801000955
:100FE000FFF758FF00222A4B00981D403B6AF31878
:100FF000DD605A60FFF7CDF9002C10D1204B5B6803
:10100000002B03D008210120FFF7ACFE2000FEBD1D
:1010100001210800FFF7A6FE041E00D188E7184B47
:101020005B68002B03D002210120FFF79BFE194BC8
:101030009C42EBD0184CE9E704210120FFF792FE17
:101040007DE7802040009BE73B681A00BC32196AAC
:10105000126852181168002910DBBA331B889B18DC
:101060001B68002B0ADB04230C4A11690B43136134
:10107000012D01D030BFA3E720BFA1E7054C9FE7BA
:10108000B40500084C05000874050008FF00FFFFC8
:10109000FFFFFFDF05004200FF00420000ED00E01F
:1010A000C0228020064952008B58C0059B009B0837
:1010B00003438B50802388581B0603438B50704793
:1010C0000000264002B4714649084900095649000B
:1010D0008E4402BC7047C046002243088B4274D342
:1010E00003098B425FD3030A8B4244D3030B8B4229
:1010F00028D3030C8B420DD3FF22090212BA030C32
:101100008B4202D31212090265D0030B8B4219D312
:1011100000E0090AC30B8B4201D3CB03C01A524132
:10112000830B8B4201D38B03C01A5241430B8B427A
:1011300001D34B03C01A5241030B8B4201D30B0363
:10114000C01A5241C30A8B4201D3CB02C01A52418A
:10115000830A8B4201D38B02C01A5241430A8B424D
:1011600001D34B02C01A5241030A8B4201D30B0236
:10117000C01A5241CDD2C3098B4201D3CB01C01A50
:10118000524183098B4201D38B01C01A524143095A
:101190008B4201D34B01C01A524103098B4201D348
:1011A0000B01C01A5241C3088B4201D3CB00C01AB5
:1011B000524183088B4201D38B00C01A524143082D
:1011C0008B4201D34B00C01A5241411A00D2014652
:1011D000524110467047FFE701B5002000F006F8C5
:1011E00002BDC0460029F7D076E770477047C04679
:1011F000002B11D1002A0FD1002900D1002802D0E4
:101200000021C943080007B4024802A14018029017
:1012100003BDC046D9FFFFFF03B4684601B502987D
:1012200000F034F8019B9E4602B00CBC7047C046EB
:10123000F0B5CE469946030C9C46130447461B0C5A
:101240001D000E0061460404240C80B50700100C3C
:101250004B436543414360432C0CC01820188C4617
:10126000834203D980235B029846C44449467943AC
:101270005643030C2D042D0C8919634400044019B6
:10128000C918C0BCB946B046F0BDC046F0B5574617
:101290004E464546DE46E0B504000D0092469946AE
:1012A00083B08B4230D82DD04946504600F0D8F854
:1012B00029000600200000F0D3F8331A9846203B9E
:1012C00034D49B4653465A46934042461F005346E9
:1012D00093401E00AF423BD8AF4200D179E05B465D
:1012E000A41BBD41002B00DA76E00022002300920F
:1012F000019301235A4693400193012342469340B0
:10130000009329E08242CFD900220023009201936A
:101310000C9B002B01D01C605D600098019903B00C
:10132000F0BCBB46B246A946A046F0BD42469B462D
:1013300020239B1A5246DA40414613004A468A400F
:10134000170042461F43534693401E00AF42C3D985
:1013500000220023009201934346002BD8D0FB07C4
:1013600072081A4346467B080EE0AB4201D1A24206
:101370000CD8A41A9D41012024196D410021013E81
:1013800024184D41002E06D0AB42EED9013E24195F
:101390006D41002EF8D1009801995B460019694112
:1013A000002B24DB2B005A464446D3402A00E2405F
:1013B0001C005B461500002B2ADB26009E403300F4
:1013C00026004746BE403200801A994100900191A4
:1013D0009EE7A342BCD882E74246202300219B1A05
:1013E0000022009101920122DA40019285E74246F3
:1013F00020239B1A2A0046469A402300F340444685
:1014000013432A00E2401C005B461500002BD4DA8F
:1014100042462F002023260097409B1ADE403B00C7
:101420003343CDE71C2101231B04984201D3000C58
:1014300010391B0A984201D3000A08391B09984247
:1014400001D30009043902A2105C40187047C0465D
:10145000040302020101010100000000000000007D
:1014600010B5002903D1FFF7DDFF203002E00800AE
:10147000FFF7D8FF10BDC046F8B5C046F8BC08BCA1
:101480009E467047F8B5C046F8BC08BC9E467047FB
:1014900001B40248844601BC604700BF61020008F5
:1014A0000300000001000000010000000000000037
:1014B00005036000040000000100000000000000BF
:1014C0000100000006046000080000002C05000870
:1014D000B101001000002040000024400000004046
:1014E00000000000000023400000304000003140B8
:1014F00000009F40000022400000104000009B4080
:101500002020202020132010101E2080170075009E
:10151000FF03050104001C03100000001FC00000B1
:1015200000040000000000000019324B647D02023C
:10153000000000804000080B100000000000FF01C8
:101540002002001F00800004FF0810180010001483
:101550000018001C4044484C5000000008100000D7
:101560000800000004000000041000000012000049
:10157000042100000021000000160000401140027C
:10158000C41300138013A01340138813A813200062
:101590001C00000000000000F4FCFF7F01000000C0
:1015A000000000100000000880000000C0150010BE
:1015B00080000008F8020000B003000818020000D4
:1015C00000093D0000093D0000127A0000093D00BD
:1015D000A00F000004000000F5000010C90000107A
:1015E00080B230B5C400002820D0114B1868030029
:1015F000BA331A8807235343026A9A1811680029DC
:10160000FCDA3E210B4A062511600B4A0B4911609A
:10161000A3210B4AC90055500A495450006A545836
:101620001B18002058605358002BFCDA30BDC04610
:101630004C05000804012640080126401E1F00003A
:10164000000026401C05000010B54378FF2B11D187
:1016500000F01AF90400032000F0FEF80121C3682D
:101660005B681A680A431A601A680A42FCD12000B3
:1016700000F0DAF810BDF7B507000020019100F086
:10168000EBF83E4C050023681A005033BC32166854
:101690001B788619002B59D000F0EEF80090032833
:1016A0001AD000F0F1F8364A364B0400D358002B1C
:1016B0003CDA01212800344A00F0F6F8002835D140
:1016C0000198FFF78DFF002F3ED03368002BFCDB25
:1016D00000F0BAF805002AE0062000F0BDF8236803
:1016E000BC331B68C0180368002B02DA274D2800A2
:1016F000FEBD002000F0B8F8254B9842F6D000233C
:10170000244A19000120126800F096F8041EEDD159
:10171000002000F0A9F81E4A1F4B904203D09C42C3
:10172000E4D00134F4E79C42BBD1DFE7174D009BC6
:10173000032B05D10121002000F0AEF80028F9D1DB
:10174000200000F071F8D2E7144DF0E700F09CF8AB
:10175000012104000C4A280000F0A6F8002808D156
:10176000002F08D03368002BFCDB00F06DF805007B
:10177000E6E7064DE4E7094DE2E7C0464C05000800
:10178000000026401C05000050050008050052001E
:101790000101880060050008F049020001005000C6
:1017A000184BF7B51B6818495A6804230C69234382
:1017B0000B61012824D030BF1300FC331B69002BC0
:1017C0001DD1A324114B12481249E40007681E5989
:1017D0000D680195104D056006251D513E240C60D5
:1017E0000E4C3E351D511D59002DFCDA0C4CFC32BF
:1017F0001461A322D20007609E50019B0B60F7BDCD
:1018000020BFD9E74C05000800ED00E000002640AD
:1018100008012640040126401E1F00001C05000090
:10182000AAAAAAAA0000000001B40248844601BC8A
:10183000604700BF9303001001B40248844601BC16
:10184000604700BFD105001001B40248844601BCC6
:10185000604700BF5904001001B40248844601BC2F
:10186000604700BFA503001001B40248844601BCD4
:10187000604700BF3908001001B40248844601BC2B
:10188000604700BFE102001001B40248844601BC79
:10189000604700BF8B03001001B40248844601BCBE
:1018A000604700BFB907001001B40248844601BC7C
:1018B000604700BFBD0400100000000000000000F1
:1018C0000000000000000000000000000000000018
:1020000000F801088D2300100D00000001240010CD
:102010000124001001240010012400100000000021
:10202000000000000000000000000000B14B0010A4
:10203000FD23001000000000514C00104D4B00101B
:10204000FD23001000000000FD230010FD23001000
:1020500000000000FD230010FD230010FD230010F0
:10206000FD230010FD230010FD230010FD230010B0
:10207000FD23001000000000FD230010FD230010D0
:10208000FD230010FD230010FD230010FD23001090
:10209000FD230010FD230010FD230010FD23001080
:1020A000FD230010FD230010FD230010FD23001070
:1020B000FD230010FD230010FD230010FD23001060
:1020C000FD230010FD230010FD230010FD23001050
:1020D000FD230010FD230010FD230010FD23001040
:1020E000FD230010FD23001000000000FD23001060
:1020F000FD230010FD230010FD230010FD23001020
:1021000000000000FD230010FD230010FD2300103F
:10211000FD230010FD23001000000000000000005F
:10212000FD230010FD230010FD230010FD230010EF
:10213000FD230010FD230010FD230010FD230010DF
:10214000FD230010FD230010FD230010FD230010CF
:10215000FD230010FD230010FD230010FD230010BF
:10216000FD230010FD230010FD230010FD230010AF
:10217000FD230010FD230010FD230010FD2300109F
:10218000FD230010FD230010FD230010FD2300108F
:10219000FD230010FD230010FD230010FD2300107F
:1021A000FD230010FD230010FD230010FD2300106F
:1021B000FD230010FD230010FD230010FD2300105F
:1021C000FD230010FD230010FD230010FD2300104F
:1021D000FD230010FD230010FD230010FD2300103F
:1021E000FD230010FD230010FD230010FD2300102F
:1021F000FD230010FD230010FD230010FD2300101F
:10220000FD230010FD230010FD230010FD2300100E
:10221000FD230010FD230010FD230010FD230010FE
:10222000FD230010FD230010FD230010FD230010EE
:10223000FD230010FD230010FD230010000000000E
:10224000000000000000000000000000FD2300105E
:10225000FD230010FD230010FD230010FD230010BE
:10226000FD230010FD230010FD23001000000000DE
:10227000000000000000000000000000000000005E
:102280000000000000000000FD230010000000001E
:10229000000000000000000000000000000000003E
:1022A000000000000000000000000000000000002E
:1022B000000000000000000000000000000000001E
:1022C000FD230010FD230010FD230010FD2300104E
:1022D00000000000000000000000000000000000FE
:1022E000FD230010FD230010FD230010FD2300102E
:1022F000FD230010FD230010FD2300100348044BB4
:10230000834202D0034B03B118477047D829000815
:10231000D8290008000000000548064B1B1AD90FF9
:1023200001EBA301491002D0034B03B118477047DA
:10233000D8290008D82900080000000010B5064C74
:10234000237843B9FFF7DAFF044B13B10448AFF326
:1023500000800123237010BDC82A0008000000007F
:10236000C464011008B5054B1BB105490548AFF31E
:102370000080BDE80840FFF7CFBF00BF00000000AD
:10238000CC2A0008C464011070477047FFF7FCFFB7
:1023900072B6144C144DAC4209DA21686268A36825
:1023A000043BA2BFC858D050FAE70C34F3E70F49FA
:1023B0000F4A00209142BCBF41F8040BFAE70D48D8
:1023C0000D490860BFF34F8F00F084F800F068F803
:1023D00002F0EEF90FF042F901F034FD0FF062F96E
:1023E000FEE70000D0640110E8640110C82A00086C
:1023F000E43F00080020000808ED00E0FEE7FEE7EB
:1024000000B504207146084202D0EFF3098002E0D3
:10241000EFF3088004300DF09DFAFEE708B50120C7
:1024200009F0B4FD08BD704710B500200DF0AAF901
:1024300000B910BD0446124B18600CF0DBFB0130F4
:10244000B4FBF0F00F4B18600CF0ECFB0130B4FB68
:10245000F0F40D4B1C60013C0C4BA3FB04239B0CC4
:1024600001330B4A13700B4BA3FB0434A409013452
:10247000094B1C6000200DF085F9084B1860D8E767
:102480000423000808230008FC22000883DE1B4305
:1024900010230008D34D62100C230008002300080D
:1024A00008B5094808F0EAFEFFF7BDFFFFF7BCFFDB
:1024B00000221146032009F0C5FD044809F008FC7C
:1024C000034809F067FC08BD68600110E42A0008B1
:1024D0002C3E0110EFF3108172B6074AD2F8883013
:1024E00043F47003C2F88830BFF34F8FBFF36F8F90
:1024F00081F31088704700BF00ED00E008B500F0E0
:1025000029F800F005F808BD08B500F015F808BD79
:1025100010B5064C064A0621204609F0E3FA054AA2
:102520000721204609F0DEFA10BD00BF000331404C
:10253000603E0110983E011008B5034805F0ACFB61
:10254000024805F0A9FB08BD943E0110CC3E0110E5
:10255000FEE7000010B5962100200DF04DFA0CF0BA
:1025600015FD002108460CF0E1FB00200CF04CFBAF
:1025700001200CF031FB00200CF0BEFA4E4B1B6822
:1025800093F83F4003E020460CF03CFE013C002C59
:10259000F9D1002101200CF045FC00200CF0B4FB27
:1025A000002872D0002108460CF03CFC00210846AF
:1025B0000CF08AFB00200CF0FFFA00200CF024FB4A
:1025C00000200CF009FB00200CF096FA00210120FD
:1025D0000CF028FC002108460CF024FC002102200D
:1025E0000CF020FC002103200CF01CFC0021042036
:1025F0000CF018FC31480CF0E3FC002850D13048B6
:102600000CF08EFD00284ED1002108460CF05CFB3A
:10261000002108460CF08AFB2A4901200CF018FE24
:10262000002843D142F2107101200CF09FFE0028D7
:102630003FD10CF0B7FA00200CF088FA00200CF023
:102640009BFA0CF0A5FA002108460DF063FB01206F
:102650000CF06CFA0CF0A8FB01200CF0AFFBFFF7BC
:10266000E3FE002108460DF055FB174805F014FB6A
:10267000164805F011FB164805F00EFB154805F04D
:102680000BFB154805F008FB10BD0CF0F9FB40F200
:102690001113984286D1012100200CF015FB81E72F
:1026A0000420FFF755FF0420FFF752FF0320FFF738
:1026B0004FFF0320FFF74CFF6C3C0008D03E011099
:1026C000400D0300F83E0110E43E0110E83E011009
:1026D000EC3E0110F03E0110F43E011008B5044834
:1026E0000DF0F2F908B1002008BD0248FCE700BF78
:1026F000142300080000020610B505F0CBFA0446CA
:1027000030B1FFF7FBFEFFF7FFFE2CB1204610BDF6
:1027100007F082FA0446F4E7FFF7E0FF0446F5E726
:1027200008B50123062219463B2005F017F900B130
:1027300001BE08BD10B584B04FF60573ADF80C307E
:102740000023ADF80830104C23689869002203215B
:1027500000F5607009F02EF9002301930222009227
:1027600002AB03A9094807F0C1F823689869012260
:10277000032100F5607009F01DF99DF8093013F090
:10278000010FE0D104B010BD6C3C0008702D0008B2
:1027900030B585B006238DF80C3000248DF8084044
:1027A0000D4D2B6898692246032100F5607009F0F1
:1027B00001F901940124009402AB224603A90748C1
:1027C00007F094F82B6898692246032100F56070A1
:1027D00009F0F0F805B030BD6C3C0008702D000821
:1027E00030B585B004238DF80C3000248DF80840F6
:1027F0000D4D2B6898692246032100F5607009F0A1
:10280000D9F801940124009402AB224603A9074899
:1028100007F06CF82B6898692246032100F5607078
:1028200009F0C8F805B030BD6C3C0008702D0008F8
:1028300030B585B0030A02228DF80C208DF80D30DA
:102840008DF80E008DF80F1000240294FFF772FF30
:10285000FFF79EFF0E4D2B6898692246032100F575
:10286000607009F0A7F801940422009202AB03A95A
:10287000084807F03BF82B6898690122032100F50E
:10288000607009F097F8FFF7ABFF05B030BD00BFEF
:102890006C3C0008702D000870B584B0030A032555
:1028A0008DF80C508DF80D308DF80E0000248DF849
:1028B0000F400294FFF73EFFFFF76AFF0F4E3368A9
:1028C00098692246294600F5607009F073F8019472
:1028D0000422009202AB03A9094807F007F8336805
:1028E00098690122294600F5607009F063F8FFF746
:1028F00077FF9DF80B0004B070BD00BF6C3C000872
:10290000702D000808B5002302220321074805F0B6
:10291000D3FC08B101BEFEE70549044805F042FDBD
:1029200008B101BEFEE7002008BD00BF6C2C000806
:102930003023000800B585B08DF80C008DF80D101F
:102940000123019300230093022303AA20210348BB
:1029500005F042FD05B05DF804FB00BF6C2C0008DB
:1029600000B587B08DF80F00002301930093012379
:102970000DF10F022021084805F02EFD01230193DF
:102980000022009205AA2021034805F071FD0020D5
:1029900007B05DF804FB00BF6C2C000808B50020F0
:1029A000FFF7DEFF08BD08B501460120FFF7C2FFB3
:1029B00008BD08B501460320FFF7BCFF08BD0000B5
:1029C000F0B59C46394C0126C4F884600223C4F853
:1029D0008430374F2A253D600425C4F88450C4F85C
:1029E0008850C4F88830C4F888604FEA102EC0B20E
:1029F000C4F88460C7F800E0C4F88450C4F8885074
:102A00003860C4F88450C4F88850C4F88860080A54
:102A1000C9B2C4F884603860C4F88450C4F88850DF
:102A20003960C4F88450C4F88850C4F88860C4F889
:102A30008460C4F884302B213960C4F88450C4F811
:102A40008850C4F88830C4F88860110AD2B2C4F83B
:102A500084603960C4F88450C4F888503A60C4F87F
:102A60008450C4F88850C4F888604FEA1C215FFA8B
:102A70008CF2C4F884603960C4F88450C4F888507B
:102A80003A60C4F88450C4F88850C4F88860C4F828
:102A90008460C4F884302C223A60C4F88450C4F8AE
:102AA0008850C4F88830C4F88860F0BD0000314018
:102AB0000001314070B50446EF23002240F23F117F
:102AC0001046FFF77DFF4FF0000C1CE0210AE0B23A
:102AD000104B0125C3F884500F4E31600421C3F818
:102AE0008410C3F888103060C3F88410C3F88810CD
:102AF000C3F888502A4492B2B2F5A07FE6D30CF115
:102B0000010C1FFA8CFCBCF1EF0F01D80022F3E797
:102B100070BD00BF00003140000131402DE9F0419F
:102B200007468C4615469846BDF81840A0EB520063
:102B300080B207EB5207B9B212F0010F01D14B1E60
:102B400099B2ACEB580292B20CEB58039BB218F05E
:102B5000010F01D1013B9BB2FFF732FF4FF0000E96
:102B60001BE0230AE2B210490127C1F884700F4E1E
:102B700033600423C1F88430C1F888303260C1F872
:102B80008430C1F88830C1F88870384480B2A842D7
:102B9000E7D30EF1010E1FFA8EFEC64501D20020CA
:102BA000F5E7BDE8F08100BF000031400001314091
:102BB0002DE9F84F86468C4615469946DDF8288063
:102BC000BDF82C70BDF830600024A0EB520080B23C
:102BD0000EEB520189B212F0010F01D1013989B215
:102BE000ACEB590292B20CEB59039BB219F0010FF6
:102BF00001D1013B9BB2FFF7E3FE4FEAD50C15F084
:102C0000070F01D00CF1010C002249E014F0800FF5
:102C10002AD1330A5FFA86FE24484FF0010AC0F831
:102C200084A0DFF88CB0CBF800300423C0F88430E7
:102C3000C0F88830CBF800E0C0F88430C0F88830A5
:102C4000C0F888A06400E4B2013189B2A94225D25B
:102C500011F0070FDAD112FB0CF3C80810FA83F356
:102C60009BB218F80340D1E7380A5FFA87FE0F4B92
:102C70004FF0010AC3F884A0DFF834B0CBF80000AD
:102C80000420C3F88400C3F88800CBF800E0C3F840
:102C90008400C3F88800C3F888A0D3E7013292B259
:102CA0004A4501D20021D1E7BDE8F88F000031404C
:102CB000000131402DE9F843EA4C0125C4F8845065
:102CC0004FF00208C4F88480E74F3D600426C4F842
:102CD0008460C4F88860C4F88880C4F888503220C2
:102CE0000CF010FEC4F88450C4F884804FF0110931
:102CF000C7F80090C4F88460C4F88860C4F888807D
:102D0000C4F8885078200CF0FDFDC4F88450C4F855
:102D10008480CF233B60C4F88460C4F88860C4F822
:102D20008880C4F88850C4F8845000233B60C4F8FD
:102D30008460C4F88860C4F88850C4F88450832242
:102D40003A60C4F88460C4F88860C4F88850C4F855
:102D5000845030223A60C4F88460C4F88860C4F8B3
:102D60008850C4F88450C4F88480ED223A60C4F8D6
:102D70008460C4F88860C4F88880C4F88850C4F8B7
:102D8000845064223A60C4F88460C4F88860C4F84F
:102D90008850C4F8845003223A60C4F88460C4F8B0
:102DA0008860C4F88850C4F8845012223A60C4F88D
:102DB0008460C4F88860C4F88850C4F884508122C4
:102DC0003A60C4F88460C4F88860C4F88850C4F8D5
:102DD0008450C4F88480E8223A60C4F88460C4F85F
:102DE0008860C4F88880C4F88850C4F8845085226C
:102DF0003A60C4F88460C4F88860C4F88850C4F8A5
:102E000084503D60C4F88460C4F88860C4F8885079
:102E1000C4F8845079223A60C4F88460C4F88860A9
:102E2000C4F88850C4F88450C4F88480CB223A6037
:102E3000C4F88460C4F88860C4F88880C4F88850F6
:102E4000C4F8845039223A60C4F88460C4F88860B9
:102E5000C4F88850C4F884502C223A60C4F88460C6
:102E6000C4F88860C4F88850C4F884503B60C4F843
:102E70008460C4F88860C4F88850C4F88450342250
:102E80003A60C4F88460C4F88860C4F88850C4F814
:102E90008450C7F80080C4F88460C4F88860C4F81F
:102EA0008850C4F88450C4F88480F7213960C4F88D
:102EB0008460C4F88860C4F88880C4F88850C4F876
:102EC000845020213960C4F88460C4F88860C4F854
:102ED0008850C4F88450C4F88480EA213960C4F86A
:102EE0008460C4F88860C4F88880C4F88850C4F846
:102EF00084503B60C4F88460C4F88860C4F888508B
:102F0000C4F884503B60C4F88460C4F88860C4F896
:102F10008850C4F88450C4F88480C1213960C4F852
:102F20008460C4F88860C4F88880C4F88850C4F805
:102F30008450C7F80090C4F88460C4F88860C4F86E
:102F40008850C4F88450C4F88480C5213960C4F81E
:102F50008460C4F88860C4F88880C4F88850C4F8D5
:102F600084503A60C4F88460C4F88860C4F888501B
:102F7000C4F884503D223A60C4F88460C4F8886084
:102F8000C4F88850C4F88450C4F88480C7223A60DA
:102F9000C4F88460C4F88860C4F88880C4F8885095
:102FA000C4F88450C0223A60C4F88460C4F88860D1
:102FB000C4F88850C4F88450C4F8848036223A603B
:102FC000C4F88460C4F88860C4F88880C4F8885065
:102FD000C4F8845068223A60C4F88460C4F88860F9
:102FE000C4F88850C4F88450C4F884803A223A6007
:102FF000C4F88460C4F88860C4F88880C4F8885035
:10300000C4F8845055223A60C4F88460C4F88860DB
:10301000C4F88850C4F88450C4F88480B1223A605F
:10302000C4F88460C4F88860C4F88880C4F8885004
:10303000C4F884503B60C4F88460C4F88860C4F865
:103040008850C4F884501D223A60C4F88460C4F8E3
:103050008860C4F88850C4F88450C4F88480B621CD
:1030600004E000BF00003140000131403960C4F885
:103070008460C4F88860C4F88880C4F88850C4F8B4
:1030800084500A223A60C4F88460C4F88860C4F8A6
:103090008850C4F88450A2203860C4F88460C4F812
:1030A0008860C4F88850C4F8845027203860C4F879
:1030B0008460C4F88860C4F88850C4F884503B60C9
:1030C000C4F88460C4F88860C4F88850C4F8845098
:1030D000C4F88480B7233B60C4F88460C4F8886077
:1030E000C4F88880C4F88850C4F8845007233B6033
:1030F000C4F88460C4F88860C4F88850C4F8845068
:10310000C4F884803960C4F88460C4F88860C4F866
:103110008880C4F88850C4F8845008233B60C4F801
:103120008460C4F88860C4F88850C4F88450C4F837
:10313000848026233B60C4F88460C4F88860C4F8A7
:103140008880C4F88850C4F884503D60C4F8846016
:10315000C4F88860C4F88850C4F88450C4F88480E7
:10316000E0233B60C4F88460C4F88860C4F88880B9
:10317000C4F88850C4F884501F233B60C4F88460AE
:10318000C4F88860C4F88850C4F884501A233B609F
:10319000C4F88460C4F88860C4F88850C4F88450C7
:1031A00018233B60C4F88460C4F88860C4F8885071
:1031B000C4F884503A60C4F88460C4F88860C4F8E5
:1031C0008850C4F884500F233B60C4F88460C4F86E
:1031D0008860C4F88850C4F8845006233B60C4F863
:1031E0008460C4F88860C4F88850C4F884504523CB
:1031F0003B60C4F88460C4F88860C4F88850C4F8A0
:10320000845087233B60C4F88460C4F88860C4F8A5
:103210008850C4F884504FF03209C7F80090C4F8C1
:103220008460C4F88860C4F88850C4F884503A6058
:10323000C4F88460C4F88860C4F88850C4F8845026
:1032400007233B60C4F88460C4F88860C4F88850E1
:10325000C4F88450C7F80080C4F88460C4F888605B
:10326000C4F88850C4F884503B60C4F88460C4F843
:103270008860C4F88850C4F8845005233B60C4F8C3
:103280008460C4F88860C4F88850C4F88450002270
:103290003A60C4F88460C4F88860C4F88850C4F800
:1032A0008450C4F88480E1213960C4F88460C4F893
:1032B0008860C4F88880C4F88850C4F884503A60A4
:1032C000C4F88460C4F88860C4F88850C4F8845096
:1032D00025223A60C4F88460C4F88860C4F8885035
:1032E000C4F884503860C4F88460C4F88860C4F8B6
:1032F0008850C4F884503B60C4F88460C4F8886087
:10330000C4F88850C4F8845010223A60C4F884602D
:10331000C4F88860C4F88850C4F8845009223A6020
:10332000C4F88460C4F88860C4F88850C4F8845035
:103330003A223A60C4F88460C4F88860C4F88850BF
:10334000C4F8845078203860C4F88460C4F8886079
:10335000C4F88850C4F884504D213960C4F88460A2
:10336000C4F88860C4F88850C4F884503B60C4F83E
:103370008460C4F88860C4F88850C4F88450182366
:103380003B60C4F88460C4F88860C4F88850C4F80E
:1033900084500D233B60C4F88460C4F88860C4F88E
:1033A0008850C4F8845038233B60C4F88460C4F863
:1033B0008860C4F88850C4F884503A60C4F88460C7
:1033C000C4F88860C4F88850C4F884501F233B6058
:1033D000C4F88460C4F88860C4F88850C4F8845085
:1033E000C4F8848011233B60C4F88460C4F888600A
:1033F000C4F88880C4F888500CF084FAC4F884506B
:10340000C4F8848029233B60C4F88460C4F88860D1
:10341000C4F88880C4F8885048460CF073FABDE8B8
:10342000F88300BF08B5012306221946082004F0DE
:1034300095FA00B108BD012306221946092004F0BF
:103440008DFA0028F6D10123062219460A2004F03D
:1034500085FA0028EED1012306221946102004F037
:103460007DFA0028E6D1012306221946112004F036
:1034700075FA0028DED1012306221946122004F035
:103480006DFA0028D6D1012306221946132004F034
:1034900065FA0028CED1012306221946142004F033
:1034A0005DFA0028C6D1012306221946152004F032
:1034B00055FA0028BED1012306221946162004F031
:1034C0004DFA0028B6D1012306221946172004F030
:1034D00045FAAFE708B5FFF7A5FF00B108BDFFF754
:1034E000E9FB0020FFF7E6FAF8E700001E4BD3F8EF
:1034F000103313F0080F0CD11C490A88013292B224
:103500000A80052A08D11A490A7842F001020A7095
:1035100002E0164A0021118013F0100F0CD115495A
:103520000A88013292B20A80052A08D110490A7825
:1035300042F002020A7002E00E4A0021118013F0EC
:10354000200F0CD10C4A138801339BB21380052B3A
:1035500008D1074A137843F0040313707047064BF1
:1035600000221A80704700BF00003140682D00081B
:10357000102E00086A2D00086C2D000810B5054CAF
:10358000054B064A0649204600F048F8204606F05A
:1035900089FF10BD202D0008ED34001040420F00BF
:1035A000582D000810B5044600231A46194633204A
:1035B00004F0D4F900231A461946342004F0CEF959
:1035C00000231A461946352004F0C8F904B910BD85
:1035D000FFF7D4FFFBE7000010B586B00D4C7C224E
:1035E000002120460DF0C2FF00230493039308221C
:1035F00002920193FF2300933A2339223821204677
:1036000006F098F808B106B010BD0349204605F051
:1036100097FFF8E7702D000840420F00F0B583B027
:1036200005460C461F4600268E60013A4A604E70E1
:103630008E7001230B70CE603246FF2106F008FF2A
:1036400000B101BE2146284606F05CFF00B101BE74
:103650000A49284606F060FE00B101BE05F10804E3
:1036600000223946204606F059FC0122009203232D
:103670002146284606F092FC03B0F0BD00E1F505B6
:1036800008B5024806F098FF08BD00BFF42D0008F9
:1036900008B500F033FE00F0EBFF00F0A1FF01F0F1
:1036A00049F800F00DFF00F095FE08BD08B501F0E7
:1036B000B4F8084B186003220021012002F002F93F
:1036C000054B186000231A46194601F0A5FC00F0CE
:1036D0006FFB08BDEC2D0008F02D000808B5FFF7C2
:1036E000D7FFFFF7E3FF02F05DFA01BEFEE700003F
:1036F00008B50821024B186801F04EF908BD00BF5B
:10370000EC2D000808B51021024B186801F044F9AF
:1037100008BD00BFEC2D00082DE9F04192B0B94B77
:1037200093E803001090ADF84410B1238DF83830C1
:103730000024ADF83A408DF83C408DF83D408DF8BE
:1037400037404FF4A87001F0A3FB0646AE4920466F
:1037500000F09CFDAD4D2946204600F097FDAC4A97
:10376000AC49204600F092FDAB4AAC49204600F03F
:103770008DFDAB4AAB49204600F088FDAA4AAB4913
:10378000204600F083FDAA4AAA49204600F07EFDAB
:103790002946204600F07AFD8DF82440ADF82640F9
:1037A000A54D2B680A9323464FF0FF3209A9A34881
:1037B000006801F031FC4FF0FF320BA9286801F0DE
:1037C000FFFDBDF82E209E49204600F05FFD9D4B79
:1037D0001F6802F089FF02464FF0FF35009523462F
:1037E0000121384603F0FCFA974B1F6802F07CFF7A
:1037F0000246009523460121384603F0F1FA934D25
:103800006FF07F41286801F0A3F84021286801F09B
:10381000C3F80D2C00F3368104EB440106EBC10123
:103820000C7501234B7500234FF0FF328848006868
:1038300001F0F2FB0134ECE78649012000F026FD9F
:103840003AE18549012000F021FD3FE1B4228DF8E5
:103850002420BDF84220ADF826208DF828309DF8B0
:1038600045308DF829300024009423462246032158
:103870007448006803F0B4FA0094234622460321FA
:103880007148006803F0ACFABDF84240BC421BD955
:1038900001278DF82C70ADF82E4000230C934FF0CB
:1038A000FF320BA96548006801F0B6FB22466B4960
:1038B000384600F0EBFC00234FF0FF3209A96848BE
:1038C000006801F0A9FB08E16649012000F0DEFC78
:1038D000F1E765490BAB009320230A466348006873
:1038E00007F0BAFE00B101BE0B9B5C08604AA2FB68
:1038F0000424A408C4EBC404A3EB4404E7B25D4B66
:1039000093F90020B2F1FF3F11D1E1B201EB410187
:1039100006EBC10101238B750F7500234FF0FF32B9
:103920004B48006801F078FB524B1C70DDE002EB65
:10393000420106EBC10100238B750A754FF0FF327F
:103940004348006801F068FBDFE7304600F008FB01
:10395000002401E00134E4B20D2C00F2C68004EB37
:10396000440106EBC1010C7500234B754FF0FF328B
:103970003748006801F050FB0128EBD022463E4951
:10398000012000F083FCE5E70024022C28DCDFF8AE
:10399000E48098F9001001EB410106EBC10100251C
:1039A0008D752B4F2B464FF0FF32386801F034FBFA
:1039B00040F2EE2002F0B4FA98F9001001EB410158
:1039C00006EBC10101238B752B464FF0FF3238689F
:1039D00001F022FB40F2EE2002F0A2FA0134D4E71B
:1039E000244B93F9001001EB410106EBC1010123C7
:1039F0008B7500234FF0FF321548006801F00CFB77
:103A00008AE000BF5C410110003F01100C3F011033
:103A100038230008443F01104C3F0110583F01106B
:103A2000683F0110743F011058230008843F0110C3
:103A300048230008903F0110082E0008D42F0008EA
:103A4000A03F0110042E0008002E0008EC2D0008F5
:103A5000F02F0008BC3F0110F43F0110244001107A
:103A6000EC2F000848400110B71DC104F42D0008D8
:103A7000932449925F230008744001109DF8373069
:103A8000042B6CD04FF0FF34009400230122FF215F
:103A9000B648006800F0CFFE054600230593069364
:103AA000B34A12680692224605A9B248006801F09E
:103AB000B3FA01287FF4C0AE4FF0FF3207A9AC4B38
:103AC000186801F07DFC01287FF4BBAEBDF81E70C4
:103AD0009DF84430002B3FF4B9AE15F0100F7FF481
:103AE000F8AE15F0080F7FF430AF00234FF0FF322F
:103AF00010A9A148006801F08FFA15F0010F00F03D
:103B000099809E49012000F0C1FB9D4B93F9003044
:103B1000B3F1FF3F7FF438AF994B93F9003003EBDB
:103B2000430316F83330F3B9ADF842309DF8442022
:103B3000013A8DF844209DF8372001328DF8372066
:103B40004FF0FF320DF137018E48006801F064FA42
:103B5000012893D08C49012000F098FB8EE70023C8
:103B60008DF844308EE7013B082B8BD8DFE803F05B
:103B70001B26313D4955050C1300BDF8423003F5B5
:103B80007A73ADF842307DE7BDF8423003F6C413D6
:103B9000ADF8423076E7BDF8423003F59C53083368
:103BA000ADF842306EE7BDF842306433ADF84230D4
:103BB0009DF84430013B8DF8443063E7BDF8423056
:103BC000FA33ADF842309DF84430013B8DF8443073
:103BD00058E7BDF8423003F5FA73ADF842309DF86E
:103BE0004430013B8DF844304CE7BDF8423003F5DA
:103BF0007A73ADF842309DF84430013B8DF8443083
:103C000040E7BDF8423003F6C413ADF842309DF8EA
:103C10004430013B8DF8443034E7BDF8423003F5C1
:103C20009C530833ADF842309DF84430013B8DF889
:103C3000443027E715F0020F19D115F0040F1BD1FE
:103C400015F0200F40F08C8015F0800F3FF41AAF74
:103C500001238DF82C300023ADF82E300C934FF05B
:103C6000FF320BA94348006801F0D6F90AE747493B
:103C7000012000F00BFB05E74549012000F006FBA1
:103C80004449012000F002FB0024ADF84240082323
:103C90008DF844308DF845408DF8374023464FF07D
:103CA000FF320DF137013748006801F0B5F9029491
:103CB0000194394B00932F235B229621A020FEF71D
:103CC00077FF8DF82440ADF82640294D2B680A93E4
:103CD00023464FF0FF3209A92648006801F09CF9FD
:103CE0004FF0FF320BA9286801F06AFBBDF82E20C7
:103CF0002A49204600F0CAFA294B1F6802F0F4FC5A
:103D000002464FF0FF35009523460121384603F067
:103D100067F8244B1F6802F0E7FC02460095234633
:103D20000121384603F05CF80D2C10DC04EB440153
:103D300006EBC1010C7501234B7500238B754FF009
:103D4000FF321948006801F067F90134ECE70023FD
:103D50004FF0FF3210A90848006801F05DF991E6C4
:103D60001249012000F092FA8CE600BFEC2D000809
:103D7000082E0008D42F0008EC2F00089C400110EA
:103D80005F230008E82F0008A8400110D840011068
:103D9000E4400110F040011078500110A03F0110E4
:103DA000042E0008002E0008F02F00081441011016
:103DB00000B583B000220621012001F083FD164BDF
:103DC000186000220821012001F07CFD134B1860CF
:103DD000134B00930023012240F2DC51114802F002
:103DE000E3FF114B1860114B0093002301224FF4A5
:103DF000C8710F4802F0D8FF0E4B18600E4B0193AC
:103E00000323009300234FF4A0620C490C4801F0F7
:103E100091FE03B05DF804FB0C2E0008082E00088C
:103E2000F13600102C410110042E00080537001057
:103E300038410110002E0008FC2D000848410110F7
:103E40001937001008B5FEF757FC00B101BE62B685
:103E5000FFF716FCFFF742FCFEE700008446084629
:103E60001146BCF1090F03D9BCF13A0F00D07047DD
:103E700030B585B0BCF13A0F13D00B4C04EB8C0E6F
:103E8000BEF80220094D2A44BDF820500295019346
:103E900000929EF8013014F82C20FEF789FE05B040
:103EA00030BD4FF00A0CE8E7EC43011074410110FB
:103EB0002DE9F04184B0BDF82880632802D904B010
:103EC000BDE8F0810C4617461E4602460C4903A881
:103ED0000DF042FA002510E005F110036B4413F8D1
:103EE000040C3038CDF8008033463A462146C0B243
:103EF000FFF7B4FF0F34A4B20135012DECDDDEE78E
:103F0000644101102DE9F04184B01F46BDF82880BE
:103F1000114B984202D904B0BDE8F0810C46164618
:103F200002460E4902A80DF017FA002510E005F12F
:103F300010036B4413F8080C3038CDF800803B4672
:103F400032462146C0B2FFF789FF0F34A4B20135D3
:103F5000052DECDDDFE700BF3F420F006C41011093
:103F6000F0B585B0044600210D2910DC01EB4100BD
:103F700004EBC002002344F8303053609360D360F8
:103F8000136153610A2304F830300131ECE7002556
:103F900012E0039A53085849A1FB03139B08C3EB93
:103FA000C303A2EB4303DBB203EB430304EBC30203
:103FB00014F833300A2B0ED0022D17D84F4903AB1B
:103FC000009320230A464E48006807F045FB00286E
:103FD000DFD001BEDDE716464A4F0FCF0FC697E888
:103FE000030086E803000135EDB2E5E7002512E0A5
:103FF000039A53084049A1FB03139B08C3EBC30377
:10400000A2EB4303DBB203EB430304EBC30614F858
:1040100033300A2B0ED0022D39D8384903AB009328
:1040200020230A463648006807F016FB0028DFD038
:1040300001BEDDE7314903AB009320230A46304837
:10404000006807F009FB00B101BE039B2E4AA2FBEA
:10405000031222F0010101EB52029B1A13F0FF033D
:1040600013D0012B0FD0092303EB4302254B03EBA5
:10407000C20CBCE80F000FC69CE8030086E80300F2
:104080000135EDB2C7E70823EEE70723ECE700258B
:104090001AE001BE039A1D4BA3FB0213D11A03EBD6
:1040A00051039B08C3EBC303D31ADBB203EB4303F7
:1040B000144A02EBC30CBCE80F000FC69CE80300D7
:1040C00086E803000135EDB20D2D13D805EB45034D
:1040D00004EBC30614F833300A2BF3D1074903ABC2
:1040E000009320230A460648006807F0B5FA002826
:1040F000D0D0CEE705B0F0BD93244992B71DC104DE
:10410000F42D0008AC520110ABAAAAAA25499224AA
:1041100030B585B00D4B53F820000390BDF80C402E
:10412000BDF80E504FF47843009338231A462946C1
:104130002046FEF7F3FC0023009332231A4629465B
:104140002046FEF7EBFC05B030BD00BF6023000841
:104150002DE9F04786B00446037D184A52F8230043
:104160000590BDF81450BDF81660B4F80880678952
:10417000B4F80C90B4F80EA01846FFF7C9FFA37D61
:1041800073B1CDF80890CDF804A06368009343465E
:104190003A4631462846FEF70BFD06B0BDE8F087EB
:1041A000CDF808A0CDF804906368009343463A46E2
:1041B00031462846FEF7FCFCEFE700BF602300080D
:1041C00010B582B007E00099F1B12A4808F035F83F
:1041D000009800F06DFE4FF0FF326946264B1868DC
:1041E00001F0EEF80128F6D19DF80430032BEFD84A
:1041F00001A252F823F000BFC74100100D42001089
:104200002F4200105142001001BEDEE71B49194841
:1042100008F013F8009941B1164C204608F00DF84B
:104220001749204608F009F8D2E701BEF4E715491E
:10423000104808F002F8009941B10E4C204607F0F2
:10424000FCFF0F49204607F0F8FFC1E701BEF4E785
:104250000D49084807F0F1FF009941B1054C20468F
:1042600007F0EBFF0649204607F0E7FFB0E701BE85
:10427000F4E700BF00006540D02F00087C54011017
:10428000483F011098540110B45401100EB430B5D9
:1042900084B00446642000F0FBFDB8B1054608ABCD
:1042A0000193C4B90020019B079AC0F1640128441E
:1042B0000DF04EF98DF80C40029500231A4602A924
:1042C0000C48006800F0A8FE01280FD104B0BDE83A
:1042D000304003B0704702F0B9F802F011FA03461B
:1042E000054A642128460DF003F8DCE7284600F073
:1042F000DFFDEBE7D02F0008D054011000B587B0E8
:10430000144B029300230193FF23009328222921B9
:10431000114806F015FE00B101BE05AA4FF4E131C7
:104320000D4806F0F9FB00B101BE00220821102063
:1043300001F0C8FA094B1860002301930322009290
:104340004FF4F0620649074801F0F4FB07B05DF84E
:1043500004FB00BFE8540110142E0008D02F000801
:10436000DC540110C141001010B584B014E02020CD
:10437000FEF792FA04462120FEF78EFA40EA042066
:1043800000238DF80030ADF8020001934FF0FF32AA
:104390006946039800F040FE4FF0FF3202A90C4B33
:1043A000186801F00DF80028F6D09DF80830002BB1
:1043B000DDD0012BF0D1BDF80A10CCB2090A2020C3
:1043C000FEF736FA21462120FEF732FAE4E700BF75
:1043D000D42F000800B583B0FFF7FEF8FEF7A0F970
:1043E00000220821012001F06DFA074B186000231C
:1043F00001930522009280220449054801F09AFBAE
:1044000003B05DF804FB00BFD42F0008FC5401107A
:104410006943001000B583B00023019301AA8021F5
:10442000094B186800F004FB019B4BB14FF0E023EF
:104430004FF08052C3F8042DBFF34F8FBFF36F8F3F
:1044400003B05DF804FB00BFEC2D000800B583B09D
:104450008020FEF7AEFA0020FEF7A5FA02E00F205A
:10446000FEF7A1FA4FF0FF320DF10701134B186868
:1044700000F0A6FF0128F5D19DF80730042BF1D8F4
:1044800001A252F823F000BFB5440010AD44001063
:10449000A54400109D4400105F4400100E20FEF75C
:1044A00082FADFE70C20FEF77EFADBE70820FEF752
:1044B0007AFAD7E70020FEF776FAD3E7E82F00086C
:1044C00030B583B0FEF71EFA00220121084601F044
:1044D000F9F9154B18608020FEF76BFA0020FEF703
:1044E00062FA124D124B2B6000246C60FEF756FAF4
:1044F0002346224621465A2003F030FA29465A2004
:1045000003F098FA0123032202215A2003F0B8FA9B
:10451000019405230093234680220649064801F0B2
:1045200009FB03B030BD00BFE82F0008D82F0008FA
:1045300015440010085501104D44001000B587B017
:1045400022E0002400944FF6FF734B227821BDF83F
:104550001200FFF7D7FC00944FF6FF738222502120
:104560009DF81400FFF7A4FC00944FF6FF739B2204
:1045700050219DF81500FFF79BFC00231A461946B1
:104580001448006800F048FD4FF0FF3204A9124BB8
:10459000186800F015FF0128F6D14FF0FF310D4BE0
:1045A000186800F0BCFF0128EED19DF81030B02B48
:1045B000C7D0B42BE1D1002302934FF47843019389
:1045C000064B00932F235B229621A020FEF7F0FAE2
:1045D000D3E700BFF02D0008EC2F00087850011041
:1045E00000B583B000220621012001F06BF9074BD2
:1045F000186000230193042200924FF420720449B2
:10460000044801F097FA03B05DF804FBEC2F0008B2
:10461000145501103D45001000B587B009E068460B
:10462000FFF796FD00231A4619460F48006800F070
:10463000F3FC4FF0FF3269460C4B186800F0C0FEE7
:104640000128F6D14FF0FF31074B186800F067FFE3
:104650000128EED19DF81530002BE0D09DF8140014
:10466000FFF756FDDEE700BFF02D0008F02F000831
:1046700000B583B0FEF72EFF002218210E2001F0B6
:1046800021F9074B186000230193042200924FF494
:10469000A0620449044801F04DFA03B05DF804FB40
:1046A000F02F000828550110194600102DE9F84395
:1046B0000027B946B8460EE0002517E0002619E0AD
:1046C00000241BE016B1B9F1000F22D004B137B3BA
:1046D0002746B146A846322001F022FC134B1C6944
:1046E000FEF75CF914F0080FE6D1012514F0100F65
:1046F000E4D1012614F0200FE2D10124002DE1D0F5
:10470000B8F1000FDED10121094B186800F044F91F
:10471000D8E70221064B186800F03EF9D6E70421DD
:10472000034B186800F038F9D2E700BF00033140AE
:10473000EC2D000800B583B00020FEF733FF002306
:1047400001930522009280220349044801F0F2F906
:1047500003B05DF804FB00BF3C550110AD460010EE
:104760000230800803D001300238FCD100BF00BF06
:104770007047EFF3108072B6704780F3108870476F
:10478000034B0360034B0B6080231360704700BF33
:10479000F4350008F42F0008034B0360034B0B6053
:1047A0004FF4807313607047B0360008F43100088E
:1047B0007047000008B503460A4A10680A4A121AF0
:1047C0009A4207DBC118094A914203DB0344054AB8
:1047D000136008BD0CF03CFF0C2303604FF0FF306A
:1047E000F7E700BF9823000800E80108E83F000849
:1047F00008B501F071FF08BD08B501F0EBFA08BD7E
:104800001AB9084205D110467047814303D00020F1
:104810007047012070470120704738B5202000F014
:1048200037FB044628B1002540F8045B00F00AF984
:104830002577204638BD2DE9F8430D4617461E461C
:10484000DDF820808146002836D015F07F4F08D053
:104850004FF03F0383F31188BFF36F8FBFF34F8F88
:1048600001BE45B94FF03F0383F31188BFF36F8F4B
:10487000BFF34F8F01BE01F0EFFD58B9B8F1000F43
:1048800008D04FF03F0383F31188BFF36F8FBFF35E
:104890004F8F01BE01F020FFD9F800403246294673
:1048A0002046FFF7ADFF88B11FB324EA0503C9F81E
:1048B00000304FF000081EE04FF03F0383F31188F3
:1048C000BFF36F8FBFF34F8F01BEBEE7B8F1000F8C
:1048D00011D05FB900210EB141F0806142462943F9
:1048E00009F1040001F018FC002404E04FF080718D
:1048F000F1E74FF0000801F06DFAB8F1000F12D0A7
:1049000048B94FF0E0234FF08052C3F8042DBFF3B5
:104910004F8FBFF36F8F02F03DF8044610F0007F19
:1049200004D024F07F442046BDE8F88300F052F91B
:10493000D9F80040324629462046FFF761FF20B1F2
:104940001FB124EA0505C9F8005000F065F9E8E751
:1049500070B50C460646A8B114F07F4F08D04FF052
:104960003F0383F31188BFF36F8FBFF34F8F01BEF7
:1049700000F030F9356825EA0404346000F04CF9A1
:10498000284670BD4FF03F0383F31188BFF36F8F4C
:10499000BFF34F8F01BEDFE7F8B50D460446A8B15F
:1049A00015F07F4F08D04FF03F0383F31188BFF31A
:1049B0006F8FBFF34F8F01BE04F10C0601F08CFE28
:1049C000206923682B432360002714E04FF03F0346
:1049D00083F31188BFF36F8FBFF34F8F01BEDFE703
:1049E000216832EA010105D111E0216841F000712E
:1049F00001F06EFC2846B0420ED04568036823F0F3
:104A00007F4213F0806FEBD121681142F2D013F096
:104A1000807FEAD01743E8E7236823EA070323608F
:104A200001F0D8F92068F8BD08B5FFF7B5FF08BD5B
:104A300008B513460A460146014802F007FA08BDC8
:104A4000294A001000F1080343604FF0FF328260F2
:104A5000C360036100230360704700230361704754
:104A600043684B609A688A60516099600861036886
:104A70000133036070470369416882688A60416856
:104A800051605A68824206D0002202611A68013AD7
:104A90001A601868704782685A60F5E730B40D688C
:104AA000B5F1FF3F11D000F108031C465B681A689E
:104AB000AA42FAD963684B6099608C6061600861B2
:104AC00003680133036030BC70470469F2E70000FB
:104AD00082B0002301930D4B1B68B3F1FF3F08D058
:104AE0004FF03F0383F31188BFF36F8FBFF34F8FF6
:104AF00001BE4FF03F0383F31188BFF36F8FBFF305
:104B00004F8F019B002BFCD002B070479C23000804
:104B100008480068006880F308884FF0000080F3C0
:104B2000148862B661B6BFF34F8FBFF36F8F00DF9B
:104B300000BF000008ED00E0DFF80C00016841F460
:104B4000700101607047000088ED00E008B54FF08B
:104B50003F0383F31188BFF36F8FBFF34F8F01F0D3
:104B60007DF828B14FF0E0234FF08052C3F8042DB8
:104B7000002383F3118808BD4FF0807340F8043C94
:104B800021F0010140F8081C054B40F80C3C40F8AE
:104B9000202C6FF0020340F8243C4438704700BFDB
:104BA000D14A0010000000000000000000000000DA
:104BB000074B19680868B0E8F04F80F30988BFF325
:104BC0006F8F4FF0000080F311887047AFF30080C3
:104BD000C43700084FF03F0383F31188BFF36F8F92
:104BE000BFF34F8F0B4A136801331360012B00D0C2
:104BF00070474FF0E023D3F8043D13F0FF0FF7D0D8
:104C00004FF03F0383F31188BFF36F8FBFF34F8FD4
:104C100001BEEDE79C230008094B1B6843B94FF028
:104C20003F0383F31188BFF36F8FBFF34F8F01BE34
:104C3000034A1368013B13600BB983F31188704773
:104C40009C2300080000000000000000000000009D
:104C5000EFF30980BFF36F8F154B1A681EF0100F2A
:104C600008BF20ED108A20E9F04F10602DE90900FF
:104C70004FF03F0080F31188BFF34F8FBFF36F8F6A
:104C800001F074F94FF0000080F3118809BC196835
:104C90000868B0E8F04F1EF0100F08BFB0EC108AA3
:104CA00080F30988BFF36F8F704700BFAFF30080B8
:104CB000C43700084FF0E022002313619361074BD3
:104CC0001B680749A1FB03139B09013B53610723A1
:104CD0001361044B9B68044ADA637047FC220008A6
:104CE000D34D621000ED00E04D4B001030B583B0A5
:104CF0004FF0E023D3F8002D3E4B9A421AD04FF0EC
:104D0000E023D3F8002D3C4B9A421DD03B4B1A7840
:104D1000D2B20192FF221A701B78DBB28DF80330F9
:104D20009DF8033003F03F03354A1370354B0722DB
:104D30001A601DE04FF03F0383F31188BFF36F8FBC
:104D4000BFF34F8F01BEDAE74FF03F0383F31188C3
:104D5000BFF36F8FBFF34F8F01BED7E7294A1368A8
:104D6000013B13609DF803305B00DBB28DF803302C
:104D70009DF8033013F0800FF0D1224B1B68042BF9
:104D800008D04FF03F0383F31188BFF36F8FBFF359
:104D90004F8F01BE1B4A13681B02136003F4E063CC
:104DA0001360019BDBB2154A13704FF0E024D4F876
:104DB000203D43F47F03C4F8203DD4F8203D43F068
:104DC0007F43C4F8203DFFF775FF00250E4B1D60A3
:104DD000FFF7B2FED4F8343F43F04043C4F8343F09
:104DE000FFF796FE01F0C2F8FFF772FE284603B007
:104DF00030BD00BF71C20F4170C20F4100E400E03E
:104E00006C370008703700089C230008EFF3058317
:104E10000F2B0FD9114A9B5CDBB2114A12789A42D0
:104E200008D94FF03F0383F31188BFF36F8FBFF3AF
:104E30004F8F01BE4FF0E023D3F80C3D03F4E06345
:104E4000084A1268934208D94FF03F0383F3118850
:104E5000BFF36F8FBFF34F8F01BE7047F0E300E0E9
:104E60006C370008703700084FF03F0383F3118858
:104E7000BFF36F8FBFF34F8F01BEFEE74FF03F03CD
:104E800083F31188BFF36F8FBFF34F8F01BEFEE72F
:104E900010B5044601F020FC20460BF0F3FF044659
:104EA00000F098FF0CB1204610BDFFF7DDFFFAE7D8
:104EB00048B110B5044601F00FFC20460BF0EAFFA4
:104EC00000F088FF10BD70470346406A18B11B6BA5
:104ED0001868C0F10700704710B50446FFF77AFE66
:104EE000A26BE36B9A4204D00024FFF795FE2046A4
:104EF00010BD0124F9E710B50446FFF76BFEA36B64
:104F000023B90124FFF788FE204610BD0024F9E7ED
:104F100070B504461546866B026C5AB903681BB11E
:104F200000200136A66370BD806801F07DFC00237F
:104F3000A360F6E76DB940680CF01AFC226C636858
:104F400013446360A268934219D3236863602846C0
:104F5000E7E7C0680CF00CFC226C5142E3689B1A36
:104F6000E3602268934202D2A3680B44E360022DFF
:104F700001D00020D5E726B1013E0020D1E7284628
:104F8000CFE70020CDE70346026C6AB110B50846B2
:104F9000D9681144D9609C68A14201D31968D960CD
:104FA000D9680CF0E5FB10BD704738B50546FFF732
:104FB00011FE95F8454064B201E0013C64B2002C5A
:104FC0000ADD6B6A43B105F1240001F007F90028FE
:104FD000F3D001F035FAF0E7FF2385F84530FFF70D
:104FE0001BFEFFF7F7FD95F8444064B201E0013C79
:104FF00064B2002C0ADD2B6943B105F1100001F009
:10500000EDF80028F3D001F01BFAF0E7FF2385F854
:105010004430FFF701FE38BDF0B585B00F46019270
:105020001D46044690B1DFB1022D26D001F014FADE
:1050300050B9019B43B14FF03F0383F31188BFF395
:105040006F8FBFF34F8F01BE002661E04FF03F032B
:1050500083F31188BFF36F8FBFF34F8F01BEE2E779
:10506000236C002BE0D04FF03F0383F31188BFF394
:105070006F8FBFF34F8F01BED6E7E36B012BD5D007
:105080004FF03F0383F31188BFF36F8FBFF34F8F50
:1050900001BECBE72A4639462046FFF739FF636A4F
:1050A0007BB948B14FF0E0234FF08052C3F8042D94
:1050B000BFF34F8FBFF36F8FFFF7AEFD012005B039
:1050C000F0BD04F1240001F089F80028F4D04FF07D
:1050D000E0234FF08052C3F8042DBFF34F8FBFF38E
:1050E0006F8FE9E7FFF798FD0020E8E702A801F0DD
:1050F00037FB012619E0002384F8443021E0002327
:1051000084F8453023E02046FFF74FFF00F062FEB1
:10511000FFF760FDA26BE36B9A42BBD3022DB9D0BF
:10512000019B002BDED0002EE0D0FFF775FD01F0D3
:10513000D3FAFFF74FFD94F8440040B2B0F1FF3FBF
:10514000D9D094F8450040B2B0F1FF3FD7D0FFF777
:1051500063FD01A902A801F02DF9D8B92046FFF797
:10516000BBFE0028CFD0019904F1100001F0DEFA57
:105170002046FFF71AFF00F02DFE0028C8D14FF09F
:10518000E0234FF08052C3F8042DBFF34F8FBFF3DD
:105190006F8FBDE72046FFF708FF00F01BFE0020E1
:1051A0008DE738B5044630B1A56801F04FF9854266
:1051B0000BD0002038BD4FF03F0383F31188BFF3BD
:1051C0006F8FBFF34F8F01BEEEE7E368013BE360F3
:1051D0000BB10120EEE71A4619462046FFF71CFFE7
:1051E0000120E7E72DE9F8430E4691461D460446A7
:1051F000C8B116B3022D2DD0FFF708FEEFF31187CB
:105200004FF03F0383F31188BFF36F8FBFF34F8FCE
:10521000A26BE36B9A422AD3022D28D0002087F399
:105220001188BDE8F8834FF03F0383F31188BFF383
:105230006F8FBFF34F8F01BEDBE7236C002BD9D0FC
:105240004FF03F0383F31188BFF36F8FBFF34F8F8E
:1052500001BECFE7E36B012BCED04FF03F0383F3CA
:105260001188BFF36F8FBFF34F8F01BEC4E794F86F
:1052700045804FFA88F8A36B2A4631462046FFF74F
:1052800047FEB8F1FF3F0FD1636A0BB90120C6E7B3
:1052900004F1240000F0A2FFF8B1B9F1000F1ED014
:1052A0000120C9F80000BAE701F024FA804518D2BD
:1052B000B8F17F0F07D008F101084FFA88F884F899
:1052C00045800120ABE74FF03F0383F31188BFF324
:1052D0006F8FBFF34F8F01BEEDE701209FE70120E5
:1052E0009DE701209BE7F8B50E46044640B3236CCA
:1052F00043B14FF03F0383F31188BFF36F8FBFF3C8
:105300004F8F01BE23682BB3FFF780FDEFF31185AC
:105310004FF03F0383F31188BFF36F8FBFF34F8FBD
:10532000A36BE26B9A4241D994F845707FB2013386
:10533000A363B7F1FF3F23D1636AC3B9012036E00D
:105340004FF03F0383F31188BFF36F8FBFF34F8F8D
:1053500001BECCE7A368002BD6D04FF03F0383F308
:105360001188BFF36F8FBFF34F8F01BECCE704F1FD
:10537000240000F033FFE8B1F6B10120306016E000
:1053800001F0B8F9874219D27F2F05D001377FB2DB
:1053900084F8457001200AE04FF03F0383F3118841
:1053A000BFF36F8FBFF34F8F01BEEFE7002085F390
:1053B0001188F8BD0120FAE70120F8E70120F6E79F
:1053C000F0B585B00F460192044680B1CFB101F02F
:1053D00043F850B9019B43B14FF03F0383F3118869
:1053E000BFF36F8FBFF34F8F01BE002655E04FF024
:1053F0003F0383F31188BFF36F8FBFF34F8F01BE5D
:10540000E4E7236C002BE2D04FF03F0383F31188D5
:10541000BFF36F8FBFF34F8F01BED8E739462046E9
:10542000FFF7B1FD013DA563236923B9FFF7F4FB45
:10543000012005B0F0BD04F1100000F0CFFE0028FF
:10544000F4D04FF0E0234FF08052C3F8042DBFF3A7
:105450004F8FBFF36F8FE9E7FFF7DEFB0020E8E730
:1054600002A801F07DF9012621E0002384F84430F0
:1054700029E0002384F845302BE02046FFF795FD16
:1054800000F0A8FC09E02046FFF78FFD00F0A2FC29
:105490002046FFF730FD00283FD1FFF79BFBA56BAF
:1054A000002DBBD1019B002BD6D0002ED8D0FFF70A
:1054B000B3FB01F011F9FFF78DFB94F844305BB2B8
:1054C000B3F1FF3FD1D094F845305BB2B3F1FF3F69
:1054D000CFD0FFF7A1FB01A902A800F06BFF0028C5
:1054E000D1D12046FFF707FD0028C6D0019904F16D
:1054F000240001F01BF92046FFF757FD00F06AFC7D
:105500000028CAD14FF0E0234FF08052C3F8042D99
:10551000BFF34F8FBFF36F8FBFE7002089E770B5F0
:1055200084B001910446D8B1236C43B14FF03F03DE
:1055300083F31188BFF36F8FBFF34F8F01BE00F06D
:105540008BFF50B9019B43B14FF03F0383F31188A8
:10555000BFF36F8FBFF34F8F01BE002635465DE06E
:105560004FF03F0383F31188BFF36F8FBFF34F8F6B
:1055700001BED9E7013BA363236833B1236943B973
:10558000FFF74AFB012004B070BD01F00FFAA060E4
:10559000F4E704F1100000F021FE0028F0D04FF0F5
:1055A000E0234FF08052C3F8042DBFF34F8FBFF3B9
:1055B0006F8FE5E746B14FF03F0383F31188BFF3E8
:1055C0006F8FBFF34F8F01BEFFF726FB0020DAE796
:1055D00002A801F0C5F801252AE0002384F8443030
:1055E00032E0002384F8453034E0FFF7F3FAA06896
:1055F00001F0C2F80646FFF70FFB3BE02046FFF73D
:10560000D4FC00F0E7FB09E02046FFF7CEFC00F0F9
:10561000E1FB2046FFF76FFC002842D1FFF7DAFAE2
:10562000A36B002BA6D1019B002BC3D0002DCFD0A4
:10563000FFF7F2FA01F050F8FFF7CCFA94F8443093
:105640005BB2B3F1FF3FC8D094F845305BB2B3F121
:10565000FF3FC6D0FFF7E0FA01A902A800F0AAFEBA
:105660000028D1D12046FFF746FC0028C6D0236889
:10567000002BBAD0019904F1240001F057F820461C
:10568000FFF793FC00F0A6FB0028C7D14FF0E02302
:105690004FF08052C3F8042DBFF34F8FBFF36F8FCD
:1056A000BCE70EB900206EE7FFF794FA2046FFF73B
:1056B0000BFC0146A06801F00DF9FFF7ADFAF1E728
:1056C00070B50D46044668B1A66800F0BFFE86427C
:1056D00012D029462046FFF722FF88B1E368013344
:1056E000E3600DE04FF03F0383F31188BFF36F8F4A
:1056F000BFF34F8F01BEE7E7E3680133E3600120AA
:1057000070BD10B5044630B1FFF764FAA46BFFF723
:1057100083FA204610BD4FF03F0383F31188BFF397
:105720006F8FBFF34F8F01BEEEE770B504460D4695
:105730001646FFF74FFA94F844305BB2B3F1FF3FDF
:105740000DD094F845305BB2B3F1FF3F0BD0FFF7BB
:1057500063FAA36B5BB12046FFF727FC70BD002303
:1057600084F84430EDE7002384F84530EFE7324613
:10577000294604F1240000F007FDECE738B50D469A
:10578000044698B13CB1E36B2BB1226C0021A3FB22
:105790000232AAB9B1B14FF03F0383F31188BFF3CE
:1057A0006F8FBFF34F8F01BE002038BD4FF03F0316
:1057B00083F31188BFF36F8FBFF34F8F01BEE1E713
:1057C0000121E7E7FFF706FA2368E26B216C01FB92
:1057D0000230A0600020A0636360013A02FB013345
:1057E000E360FF2384F8443084F84530B5B9236979
:1057F0001BB9FFF711FA0120D7E704F1100000F000
:10580000EDFC0028F5D04FF0E0234FF08052C3F8B4
:10581000042DBFF34F8FBFF36F8FEAE704F1100041
:10582000FFF710F904F12400FFF70CF9E1E738B5B0
:105830001D46049C0B4649B92460E06323640121A2
:105840002046FFF79BFF84F84C5038BD2260F4E7F8
:1058500010B584B01C46EBB140B33CB302B129B3E0
:1058600012B350230393039B502B08D04FF03F03F8
:1058700083F31188BFF36F8FBFF34F8F01BE039B7C
:10588000012384F8463000949DF81830FFF7CFFFCD
:10589000204615E04FF03F0383F31188BFF36F8F6D
:1058A000BFF34F8F01BED7E70029DAD04FF03F0397
:1058B00083F31188BFF36F8FBFF34F8F01BE0020BA
:1058C00004B010BDF0B583B0F8B10C4617460646DB
:1058D0000023A0FB0412B2B9BBB904FB06F010F11F
:1058E000510F12D85030FFF7D3FA0546B8B1002354
:1058F00080F8463000903B4600F150022146304689
:10590000FFF795FF0BE00123E6E74FF03F0383F33A
:105910001188BFF36F8FBFF34F8F01BE002528465C
:1059200003B0F0BD10B4044618B191B10020034695
:1059300013E04FF03F0383F31188BFF36F8FBFF382
:105940004F8F01BEF1E70E4800EBC30008B10160C4
:1059500044605DF8044B70470133092BF6D8084AC0
:1059600002EBC3025268A242EDD00028F4D1044AEF
:1059700052F83320002AEFD1014800EBC300EBE7D7
:1059800074370008074B1B681B6823B9064B4FF0A0
:10599000FF321A607047034B1B68DB681A68024BC2
:1059A0001A607047C83700089C38000810B50446D4
:1059B000FFF710F9294A136801331360284B1B685D
:1059C0005BB1284B1B686BB9254B1B68DA6AE36A2D
:1059D0009A4207D8224B1C6004E0214B1C601368DC
:1059E000012B37D0204A1368013313606364E36AE4
:1059F0001E4A1268934201D91C4A13601C4A03EBE9
:105A0000830302EB83035B68A3609868E060211D59
:105A100041609960E36A03EB8301880002EB810136
:105A20006161115801311150FFF7F6F80D4B1B68F9
:105A30007BB10B4B1B68DA6AE36A9A4209D24FF0DA
:105A4000E0234FF08052C3F8042DBFF34F8FBFF314
:105A50006F8F10BD00F072FDC4E700BF5C38000816
:105A6000C4370008BC380008683800086C380008E3
:105A7000D037000808B500F0B7FD074B1B68012BB5
:105A8000F9D94FF0E0234FF08052C3F8042DBFF353
:105A90004F8FBFF36F8FEEE7D037000870B5044625
:105AA0000D461E4B1E681E4B18680430FEF7E3FFC0
:105AB000B4F1FF3F0DD03444194B1B685C60A64223
:105AC0001DD9184B1868164B19680431FEF7E6FF0C
:105AD00070BD002DEFD0144A5168114B18688160D9
:105AE00018688C68C46018680430606018680430F6
:105AF00088601B685A61136801331360E8E70B4B39
:105B00001868074B19680431FEF7C8FF084B1B687B
:105B1000A342DDD9064B1C60DAE700BFE838000875
:105B2000C4370008CC370008C0380008C837000860
:105B30009C3800082DE9F04385B007468846144696
:105B40001E469000FFF7A4F920B38146BC20FFF762
:105B50009FF90546D0B1BC2200210BF007FDC5F826
:105B60003090E5B1002385F8B930039302950D9B81
:105B700001930C9B0093334622464146384600F081
:105B80007BFC2846FFF712FF012005E04846FFF79F
:105B90008FF9E6E74FF0FF3005B0BDE8F0834FF036
:105BA000FF30F9E710B588B000240594069407AAE1
:105BB00006A905A8FEF7E4FD059B0293069B019349
:105BC00000942346079A1C491C4800F033FD1C4BE7
:105BD000186050B101F0B4F8012808D0B0F1FF3FCF
:105BE0001FD0184B1B6808B010BD0020F4E74FF021
:105BF0003F0383F31188BFF36F8FBFF34F8F124BB7
:105C00001B686833114A1360114B4FF0FF321A6062
:105C1000104B01221A60104B00221A60FFF766F841
:105C2000DFE74FF03F0383F31188BFF36F8FBFF3BC
:105C30004F8F01BED5E700BF4C550110755A0010BB
:105C400098380008A0230008C43700082026000860
:105C50009C380008BC380008E8380008524B1B6824
:105C6000002B40F0998070B5504B1C6801341C60CB
:105C7000C4B94F4B1B681B6843B14FF03F0383F31C
:105C80001188BFF36F8FBFF34F8F01BE484A116871
:105C9000484B186810601960474A13680133136055
:105CA000FFF770FE454B1B68A34210D90020444B00
:105CB0001B68DB6A03EB83039A00424B9B58012B62
:105CC00000D90120404B1B68002B6BD170BD002018
:105CD00037E03A4B4FF0FF321A60E8E7374B1A6073
:105CE000E5E7D968516042E0002199621168013905
:105CF0001160DA6A354909688A4201D933490A6074
:105D0000304902EB82024FEA820C8C44DCF804201A
:105D10009A609668DE6075609560DA6A02EB820CC4
:105D20004FEA8C054E195E614D5901354FEA8C0CD6
:105D300041F80C50DA6A224B1B68DB6A9A4200D3A6
:105D400001201B4B1B681B68002BC2D0184B1B6823
:105D5000DB68DB685A689442C0D35A699D68D96889
:105D6000A9609D684D6051681D1DA942B9D00021F0
:105D700059611168013911609A6A002AB9D0DE6947
:105D8000196AB160DE694E60566803F118018E42EF
:105D9000AAD1196A5160A7E70D4A1368013313604D
:105DA00000207047012091E764380008E8380008B7
:105DB000C8370008CC370008A03800089C38000815
:105DC000C4370008D0370008EC3800086C380008E9
:105DD000A438000810B54A4B1B6843B94FF03F0385
:105DE00083F31188BFF36F8FBFF34F8F01BEFEF7B0
:105DF000F1FE434B1A68013A1A601B68002B7AD1F6
:105E0000404B1B683BB9002476E0196A516015E0ED
:105E1000D968516021E000233B4A1268002A47D02C
:105E2000394BDB68DB689A6AD869196A8160D8697E
:105E30004860506803F118018842E6D00021996259
:105E40001168013911605A699868D9688160986849
:105E500048605168181D8142DAD0002159611168EB
:105E600001391160DA6A294909688A4201D927494A
:105E70000A60274902EB820201EB820252689A60B3
:105E80009468DC6060609060DA6A02EB82008400F3
:105E900001EB80005861085901300851D96A1D4A48
:105EA0001268D26A9142B7D31B4A01211160B3E74D
:105EB0000BB1FFF767FD194B1C6884B9164B1C68C2
:105EC000D4B14FF0E0234FF08052C3F8042DBFF35C
:105ED0004F8FBFF36F8F01240EE0013C07D0FFF717
:105EE000BDFE0028F9D00C4B01221A60F5E70B4BE0
:105EF00000221A60E2E70024FEF78EFE204610BD65
:105F0000643800085C380008A83800086C380008BD
:105F1000D0370008C4370008EC380008A43800085F
:105F200010B5A8B10446104B1B6843B14FF03F03B6
:105F300083F31188BFF36F8FBFF34F8F01BE00F063
:105F4000CBFB00212046FFF7A9FDFFF743FF48B92F
:105F50004FF0E0234FF08052C3F8042DBFF34F8F72
:105F6000BFF36F8F10BD00BF6438000808B5304B19
:105F70001B681BB12F4B01221A6008BD2D4B00225C
:105F80001A602D4B1B681B6B1A68B2F1A53F03D139
:105F90005A68B2F1A53F08D0274B18681968343108
:105FA000FEF76CFF254B1B6809E09A68B2F1A53F2C
:105FB000F2D1DB68B3F1A53FEED1F3E7013B03EB90
:105FC00083018A001E498A585AB9002BF6D14FF036
:105FD0003F0282F31188BFF36F8FBFF34F8F01BE73
:105FE000ECE703EB830082000A445068406850608D
:105FF00003EB830C4FEA8C020832114488420FD025
:1060000003EB830291000E4A0A445268D1680A4A9F
:1060100011600A490B60136868330A4A1360ACE7E1
:10602000406862469100064A0A445060E8E700BFB3
:1060300064380008EC380008C43700086C380008E1
:10604000D03700082026000838B50446FEF7C2FD08
:10605000D4B1251D2846FEF70EFDA36A1BB104F13D
:106060001800FEF708FD29462648FEF7F9FC002334
:10607000002B0CDDFEF7D0FD234B1B68A3B9234B8F
:106080001B68A34217D038BD204B1C68E1E7E2181B
:1060900092F8B820D2B2012A01D00133E8E7E21821
:1060A000002182F8B810F8E7FEF794FDFFF76AFCCC
:1060B000FEF7B2FDE3E7144B1B68B3B1144B1B684A
:1060C00043B14FF03F0383F31188BFF36F8FBFF3EA
:1060D0004F8F01BE4FF0E0234FF08052C3F8042DE4
:1060E000BFF34F8FBFF36F8FCDE7064B1A68094B95
:1060F0001B689A4203D1054B00221A60C3E7FFF7E1
:1061000035FFC0E7C0380008BC380008C4370008B5
:10611000643800085C38000838B5044630B3184BC2
:106120001B6843B94FF03F0383F31188BFF36F8FB0
:10613000BFF34F8F01BE134B186841F000418161DE
:1061400061681868C16118688D6805621868183040
:1061500068601868183088601B689C622368013387
:10616000236001211046FFF799FC38BD4FF03F0333
:1061700083F31188BFF36F8FBFF34F8F01BECEE75C
:1061800064380008C437000870B503460846114655
:106190001A46BBB15468104B1D68EC611D68A668B7
:1061A0002E621D68183575601D681835A5601B685E
:1061B0009A6213680133136009B14FF0FF30FFF7A3
:1061C0006DFC70BD4FF03F0383F31188BFF36F8FF9
:1061D000BFF34F8F01BEDDE7C437000810B4C368BA
:1061E000DB68002B4AD09A6AD869196A8160D8693D
:1061F0004860516803F11800814249D0002199623A
:106200001168013911602C4A1268002A46D15A6976
